:1000000041C0CEC15AC059C058C057C056C055C0D3
:1000100054C053C052C051C050C04FC04EC04DC05C
:100020004CC04BC04AC0040309040C034D006300DC
:100030004D00430043002A0346006C00610073003A
:10004000680020005500530042002000500072005C
:100050006F006700720061006D006D006500720046
:1000600012011001FF000008C016DC0500010102AA
:1000700000010902120001010080280904000000AB
:100080000000000011241FBECFE5D4E0DEBFCDBFCD
:1000900010E0A0E6B0E0E0EDFCE002C005900D92BB
:1000A000A236B107D9F712E0A2E6B0E001C01D9276
:1000B000A03EB107E1F7B9D50AC6A2CF85B78360E4
:1000C00085BF8BB780648BBF08950F931F93CF9329
:1000D000DF936091C602161604F563508091C30247
:1000E000C6EDD2E0C81BD1098091C2028D3209F45D
:1000F0004BC08091620087FD4CC0CE01D1D38F3FB1
:1001000009F483C0882309F458C020E030E030931C
:100110006200209360001092C6028091610084FF0B
:1001200027C0809160008F3F19F1682F8930E0F57A
:10013000861B809360008091620080FD33C00BE4D9
:100140008F5F8093620087FD68C0662309F454C006
:1001500087EB92E04CD3682F162F693008F479C0F2
:100160008FEF809360009EE10093B6029093610050
:100170009AE080B3857009F0F5C09150D1F71092E4
:10018000C7021092C102EEC08AE580936100683018
:10019000B9F020E030E830936200209360001092C4
:1001A000C602BBCF03ECCCCF68E0861B8093600017
:1001B0008091620080FFC3CFF5CF2FEF30E0EBCF0F
:1001C0008881807609F05AC02FEB32E01092BF028E
:1001D0008981882309F059C01092C0023093C5026A
:1001E0002093C40222E030E88F818823A1F68E811B
:1001F000821788F6282FCFCF60E087EB92E0CCD033
:1002000094E08FEF80936000AFCF809360008EE129
:10021000809361002FEF30E07ACF2091C4023091BB
:10022000C50286FF1EC0462F41504F3F69F0F901BD
:10023000942FA7EBB2E084918D9331969150D8F72B
:100240002F5F3F4F240F311D3093C5022093C4020E
:1002500083CF87EB92E0A0D0912F9C5F183089F676
:1002600083CF462F41504F3F79F3F901942FA7EBED
:10027000B2E081918D939150E0F7E2CFCE010FD49F
:10028000282F8F3FA9F030E8AFCF853059F0863066
:10029000A9F08830E9F0893021F18A3041F120E07D
:1002A00030E8A2CF8A818093C70220E030E89CCF5B
:1002B000888187FF2BCF2E8130E029CF8B81813041
:1002C000E9F0823081F1833011F120E030EC8CCF05
:1002D00089EC92E09093C5028093C40221E030E85B
:1002E00083CF8A818093C90220E030E87DCF3093AC
:1002F000C5022093C40221E030E876CF80E690E08A
:100300009093C5028093C40222E130EC6DCF8A81C4
:10031000882391F486E290E09093C5028093C40212
:1003200024E030EC61CF82E790E09093C5028093A7
:10033000C40222E130EC58CF813059F0823029F6E6
:1003400086E390E09093C5028093C4022AE230ECE9
:100350004BCF8AE290E09093C5028093C4022CE0D8
:1003600030EC42CFDF91CF911F910F910895A82FCC
:10037000B92F80E090E041E050EA60956F5F58F45B
:100380002D9138EF82279795879510F08427952730
:100390003F5FC8F3F3CF0895EADF8D939D930895EF
:1003A000CF93CFB7CF93809BFECF809B09C0809B1C
:1003B00007C0809B05C0809B03C0809B01C0A1C07B
:1003C000DF93C091C302DD27C653DD4F809B02C07F
:1003D000DF91EBCF2F930F931F9300B32FEF00FB11
:1003E00020F94F933F9310B34FEF012700FB21F902
:1003F0003BE031C04E7F012F10B3216028C0102F89
:100400004D7F2260000000B329C04B7F2460012F84
:10041000000010B32BC010B3477F28602AC04F7E66
:1004200000B320612CC04F7D10B320622FC04F7BE2
:1004300000B3206432C0422700B349934FEF00005D
:10044000102710FB20F910B31570C9F1297F91F224
:10045000012700FB21F900B3237F89F2315058F1C5
:10046000102710FB22F910B3277E79F2012700FB39
:1004700023F92F7C81F200B3102710FB24F92F7988
:1004800071F200C010B3012700FB25F92F7359F258
:1004900000C000B3102710FB26F9223040F200C044
:1004A00010B3012700FB27F9243028F64F77206886
:1004B00010B30000F9CF10E41ABF002717C03B505B
:1004C0003195C31BD04010E41ABF0881033CE9F00A
:1004D0000B34D9F02091C1021981110F1213EDCF05
:1004E000093641F10D3211F0013E39F70093C8028F
:1004F0003F914F911F910F912F91DF91CAB7C6FD88
:1005000052CFCF91CFBFCF9118950091C802002351
:1005100079F31091C602112349F534304AF1309332
:10052000C6020093C2021091C3023BE0311B30931C
:10053000C3021EC00091C6020130C4F40AE5309126
:10054000610034FD17C000936100C6EBD2E016C015
:10055000052710E002BB1FC0052722C0052727C0C2
:1005600005272CC0052710E002BB33C04AE503C0B5
:1005700042ED01C0432FC4E1D0E032E011B3156079
:10058000909A02B311BB5F9355E020E820FF052746
:1005900002BB279517951C3FD8F620FF0527279506
:1005A00002BB17951C3FC0F620FF0527279517951E
:1005B00002BB1C3F98F620FF0527279517951C3F87
:1005C00002BB70F600C0499120FF052702BB2795AA
:1005D00017951C3F38F620FF0527279502BB179576
:1005E0001C3F38F520FF05272795179502BB1C3FB8
:1005F00010F520FF0527279517951C3F02BBE8F44F
:10060000242F3A9519F60A7F5F9102BB1091C70219
:10061000110FC651D04011F01093C10210E41ABF5F
:10062000016011B31A7F402F4A7F02BB11BB42BB4E
:100630005FCF0527D3CF0527D8CF0527DDCF17BA42
:10064000A098A19896B383B38295880F880F807C79
:100650009F73892B90E00895982F8FE387BBA09A12
:10066000A19A892F8F7388BB96FF05C0A89A97FD22
:1006700005C0A9980895A89897FFFBCFA99A089557
:10068000EF92FF920F931F937B018C01A895AC987A
:10069000AA98AB989198862FDFDF919AAA98AB9A87
:1006A0009198BB27A12F902F8F2DD6DF919AAA9AD0
:1006B000AB9891987801002711278E2DCDDF919A64
:1006C000AC9A1F910F91FF90EF900895EF92FF92D7
:1006D0000F931F937B018C01A895AC98AA98AB98B7
:1006E0009198862FB9DF919AAA98AB9A9198BB27D7
:1006F000A12F902F8F2DB0DF919AAD98AA98AB982B
:1007000091983BE016950795F794E7943A95D1F7C1
:100710008E2DA2DF919AAA98AB9A9198EF2CF02E89
:10072000012F11278E2D98DF919AAD9AAC9A1F91C7
:100730000F91FF90EF900895FF920F931F938B01FD
:100740009C01F42E80917500882351F4C901B801F1
:1007500097DFAD9893988F2D7FDF939AAD9A07C05E
:10076000C901B801B3DF93988F2D76DF939A1F915B
:100770000F91FF900895CF92DF92EF92FF920F9327
:100780001F93CF93DF9300916C00002339F1C09049
:100790007100D0907200E0907300F0907400C6E792
:1007A000D0E010E006C04B81C7DF1F5F2496101712
:1007B000A9F0688179818A819B8190706F3F2FEFCA
:1007C00072072FEF820720E0920769F74B81C7017C
:1007D000B601B2DF1F5F2496101759F7DF91CF9152
:1007E0001F910F91FF90EF90DF90CF900895BF92EF
:1007F000CF92DF92EF92FF920F931F93CF93DF93ED
:100800009C01B62E80916300893019F08FEF90E043
:100810003DC0939AAD9A959AC0907500CC2009F48A
:100820009498BB2069F1E0907100F0907200009103
:10083000730010917400E901DD2410C0C801B701F4
:100840001FDFAD98FCDE8883AD9A0894E11CF11C93
:10085000011D111DD3942196DB1451F0CC2071F3AE
:10086000C801B70133DF9498EADE8883949AEDCF0C
:10087000E0927100F0927200009373001093740084
:10088000CC2009F4949A95988B2D90E0DF91CF912C
:100890001F910F91FF90EF90DF90CF90BF90089540
:1008A0003F924F925F926F927F928F929F92AF9200
:1008B000BF92CF92DF92EF92FF920F931F93CF934D
:1008C000DF93DC01809163008A3019F08FEF90E0B4
:1008D000D4C061506F3F09F4CBC0209164003091C7
:1008E0006500409166005091670024173507E0F4D9
:1008F000F901EA54FF4F05C031962417350709F472
:10090000B2C0A8958D9180832F5F3F4F6150A0F7B3
:10091000309365002093640080916400909165009D
:100920008417950708F49CC0939A949AAD9A969A66
:100930004115510509F46EC030906C0060906D0057
:1009400070906E0080906F0090907000A090680092
:10095000B0906900C0906A00D0906B00C6EBD0E008
:100960002E01440E551E2AC006DF4881E09071001A
:10097000F09072000091730010917400C801B701EB
:10098000DBDE0894E11CF11C011D111DE0927100D9
:10099000F09272000093730010937400611471045C
:1009A0008104910439F0640153010894A108B1084D
:1009B000C108D1082196C415D50521F1A114B104AF
:1009C000C104D10499F5332079F64881E090710093
:1009D000F09072000091730010917400C801B7018B
:1009E000ABDE0894E11CF11C011D111DE0927100A9
:1009F000F092720000937300109374002196C41556
:100A0000D505E1F6A0926800B0926900C0926A0034
:100A1000D0926B0096981092670010926600109228
:100A200065001092640081E090E027C04881E0906A
:100A30007100F09072000091730010917400C80171
:100A4000B7017ADE0894E11CF11C011D111DE09232
:100A50007100F09272000093730010937400A5CFA0
:100A600080E090E00AC030936500209364005CCF82
:100A700040916600509167004FCFDF91CF911F9159
:100A80000F91FF90EF90DF90CF90BF90AF909F902D
:100A90008F907F906F905F904F903F900895FC01F2
:100AA000109263008181843009F491C0853078F020
:100AB000863009F464C0863008F44AC0873009F4EF
:100AC00093C0843609F48AC080E090E008958230B3
:100AD00009F46FC08330E8F04581348193818281CD
:100AE00020916C00213118F020E010926C00E22F70
:100AF000F0E0EE0FFF1FEE0FFF1FEA58FF4F80835D
:100B00009183328343832F5F20936C0080E090E0D9
:100B100008958130C9F689E08093630084819581CE
:100B2000A0E0B0E0DC01992788272281338140E0F2
:100B300050E0822B932BA42BB52B809371009093C4
:100B40007200A0937300B09374008FEF90E008954B
:100B50001092750010926D0010926E0010926F004E
:100B600010927000109268001092690010926A0052
:100B700010926B0010926C0080E090E008958481E8
:100B80009581A0E0B0E0DC0199278827228133819C
:100B900040E050E0822B932BA42BB52B80936D006B
:100BA00090936E00A0936F00B093700080E090E08F
:100BB00008958AE0809363001092650010926400AB
:100BC000868197819093670080936600A7CF939A60
:100BD000949AAD9AD0DD80E090E008958281809370
:100BE000750080E090E008959598969840E0959A79
:100BF00024EF31E08CE291E00197F1F72150304091
:100C0000C9F7A8959598969A24EF31E08CE291E087
:100C10000197F1F721503040C9F7A89596984F5F9A
:100C2000463029F780E090E0089517BA9FE394BB1F
:100C3000A098A1988A98899A8B9A8C9A8D9A8E9A64
:100C40008F9A12BA83E085BB98BB939A949AAD9A17
:100C5000919A88E190E02FE00FB6F894A89581BDB5
:100C60000FBE21BD9598969840E0959A24EC39E006
:100C70008CE291E00197F1F721503040C9F7A89537
:100C80009598969A24EC39E08CE291E00197F1F77F
:100C900021503040C9F7A89596984F5F463029F704
:100CA000AC98AA9AAB9A919880E8D6DC919AAC9AC3
:100CB000889A2FEFA89580E797E10197F1F72150E7
:100CC000C9F78898FBD97894A895FFD9FDCFFFCFB5
:020CD000FF5AC9
:00000001FF
